{
  "_format": "hh-sol-artifact-1",
  "contractName": "MessengerContract",
  "sourceName": "contracts/MessengerContract.sol",
  "abi": [
    {
      "inputs": [],
      "stateMutability": "payable",
      "type": "constructor"
    },
    {
      "anonymous": false,
      "inputs": [
        {
          "indexed": true,
          "internalType": "address",
          "name": "from",
          "type": "address"
        },
        {
          "indexed": false,
          "internalType": "uint256",
          "name": "timestamp",
          "type": "uint256"
        },
        {
          "indexed": false,
          "internalType": "string",
          "name": "message",
          "type": "string"
        }
      ],
      "name": "NouveauMessage",
      "type": "event"
    },
    {
      "inputs": [
        {
          "internalType": "string",
          "name": "_message",
          "type": "string"
        }
      ],
      "name": "envoyerMessage",
      "outputs": [],
      "stateMutability": "nonpayable",
      "type": "function"
    },
    {
      "inputs": [],
      "name": "getListeMessages",
      "outputs": [
        {
          "components": [
            {
              "internalType": "address",
              "name": "emetteur",
              "type": "address"
            },
            {
              "internalType": "string",
              "name": "message",
              "type": "string"
            },
            {
              "internalType": "uint256",
              "name": "timestamp",
              "type": "uint256"
            }
          ],
          "internalType": "struct MessengerContract.Message[]",
          "name": "",
          "type": "tuple[]"
        }
      ],
      "stateMutability": "view",
      "type": "function"
    },
    {
      "inputs": [],
      "name": "getNombreMessage",
      "outputs": [
        {
          "internalType": "uint256",
          "name": "",
          "type": "uint256"
        }
      ],
      "stateMutability": "view",
      "type": "function"
    }
  ],
  "bytecode": "0x60806040526200004f6040518060400160405280602081526020017f496e697469616c69736174696f6e204d657373656e676572436f6e74726163748152506200005560201b620004161760201c565b620001e9565b620000f5816040516024016200006c919062000162565b6040516020818303038152906040527f41304fac000000000000000000000000000000000000000000000000000000007bffffffffffffffffffffffffffffffffffffffffffffffffffffffff19166020820180517bffffffffffffffffffffffffffffffffffffffffffffffffffffffff8381831617835250505050620000f860201b60201c565b50565b60008151905060006a636f6e736f6c652e6c6f679050602083016000808483855afa5050505050565b60006200012e8262000186565b6200013a818562000191565b93506200014c818560208601620001a2565b6200015781620001d8565b840191505092915050565b600060208201905081810360008301526200017e818462000121565b905092915050565b600081519050919050565b600082825260208201905092915050565b60005b83811015620001c2578082015181840152602081019050620001a5565b83811115620001d2576000848401525b50505050565b6000601f19601f8301169050919050565b610bd780620001f96000396000f3fe608060405234801561001057600080fd5b50600436106100415760003560e01c80637c4b187b14610046578063a1fac01814610062578063bc251ffe14610080575b600080fd5b610060600480360381019061005b91906105e3565b61009e565b005b61006a6102b9565b604051610077919061089e565b60405180910390f35b6100886102c5565b604051610095919061081a565b60405180910390f35b600060405180606001604052803373ffffffffffffffffffffffffffffffffffffffff16815260200183815260200142815250908060018154018082558091505060019003906000526020600020906003020160009091909190915060008201518160000160006101000a81548173ffffffffffffffffffffffffffffffffffffffff021916908373ffffffffffffffffffffffffffffffffffffffff160217905550602082015181600101908051906020019061015d9291906104d8565b506040820151816002015550503373ffffffffffffffffffffffffffffffffffffffff167fd53f414b1b3b321b3c1489a59839f6a4b02cd2c8851830781bd8de17a6e2399642836040516101b29291906108b9565b60405180910390a26000655af3107a4000905047811115610208576040517f08c379a00000000000000000000000000000000000000000000000000000000081526004016101ff9061085e565b60405180910390fd5b60003373ffffffffffffffffffffffffffffffffffffffff168260405161022e90610805565b60006040518083038185875af1925050503d806000811461026b576040519150601f19603f3d011682016040523d82523d6000602084013e610270565b606091505b50509050806102b4576040517f08c379a00000000000000000000000000000000000000000000000000000000081526004016102ab9061087e565b60405180910390fd5b505050565b60008080549050905090565b60606000805480602002602001604051908101604052809291908181526020016000905b8282101561040d57838290600052602060002090600302016040518060600160405290816000820160009054906101000a900473ffffffffffffffffffffffffffffffffffffffff1673ffffffffffffffffffffffffffffffffffffffff1673ffffffffffffffffffffffffffffffffffffffff16815260200160018201805461037290610a2e565b80601f016020809104026020016040519081016040528092919081815260200182805461039e90610a2e565b80156103eb5780601f106103c0576101008083540402835291602001916103eb565b820191906000526020600020905b8154815290600101906020018083116103ce57829003601f168201915b50505050508152602001600282015481525050815260200190600101906102e9565b50505050905090565b6104ac8160405160240161042a919061083c565b6040516020818303038152906040527f41304fac000000000000000000000000000000000000000000000000000000007bffffffffffffffffffffffffffffffffffffffffffffffffffffffff19166020820180517bffffffffffffffffffffffffffffffffffffffffffffffffffffffff83818316178352505050506104af565b50565b60008151905060006a636f6e736f6c652e6c6f679050602083016000808483855afa5050505050565b8280546104e490610a2e565b90600052602060002090601f016020900481019282610506576000855561054d565b82601f1061051f57805160ff191683800117855561054d565b8280016001018555821561054d579182015b8281111561054c578251825591602001919060010190610531565b5b50905061055a919061055e565b5090565b5b8082111561057757600081600090555060010161055f565b5090565b600061058e6105898461090e565b6108e9565b9050828152602081018484840111156105a657600080fd5b6105b18482856109ec565b509392505050565b600082601f8301126105ca57600080fd5b81356105da84826020860161057b565b91505092915050565b6000602082840312156105f557600080fd5b600082013567ffffffffffffffff81111561060f57600080fd5b61061b848285016105b9565b91505092915050565b60006106308383610797565b905092915050565b610641816109b0565b82525050565b60006106528261094f565b61065c8185610972565b93508360208202850161066e8561093f565b8060005b858110156106aa578484038952815161068b8582610624565b945061069683610965565b925060208a01995050600181019050610672565b50829750879550505050505092915050565b60006106c78261095a565b6106d1818561098e565b93506106e18185602086016109fb565b6106ea81610aef565b840191505092915050565b60006107008261095a565b61070a818561099f565b935061071a8185602086016109fb565b61072381610aef565b840191505092915050565b600061073b60218361099f565b915061074682610b00565b604082019050919050565b600061075e60258361099f565b915061076982610b4f565b604082019050919050565b6000610781600083610983565b915061078c82610b9e565b600082019050919050565b60006060830160008301516107af6000860182610638565b50602083015184820360208601526107c782826106bc565b91505060408301516107dc60408601826107e7565b508091505092915050565b6107f0816109e2565b82525050565b6107ff816109e2565b82525050565b600061081082610774565b9150819050919050565b600060208201905081810360008301526108348184610647565b905092915050565b6000602082019050818103600083015261085681846106f5565b905092915050565b600060208201905081810360008301526108778161072e565b9050919050565b6000602082019050818103600083015261089781610751565b9050919050565b60006020820190506108b360008301846107f6565b92915050565b60006040820190506108ce60008301856107f6565b81810360208301526108e081846106f5565b90509392505050565b60006108f3610904565b90506108ff8282610a60565b919050565b6000604051905090565b600067ffffffffffffffff82111561092957610928610ac0565b5b61093282610aef565b9050602081019050919050565b6000819050602082019050919050565b600081519050919050565b600081519050919050565b6000602082019050919050565b600082825260208201905092915050565b600081905092915050565b600082825260208201905092915050565b600082825260208201905092915050565b60006109bb826109c2565b9050919050565b600073ffffffffffffffffffffffffffffffffffffffff82169050919050565b6000819050919050565b82818337600083830152505050565b60005b83811015610a195780820151818401526020810190506109fe565b83811115610a28576000848401525b50505050565b60006002820490506001821680610a4657607f821691505b60208210811415610a5a57610a59610a91565b5b50919050565b610a6982610aef565b810181811067ffffffffffffffff82111715610a8857610a87610ac0565b5b80604052505050565b7f4e487b7100000000000000000000000000000000000000000000000000000000600052602260045260246000fd5b7f4e487b7100000000000000000000000000000000000000000000000000000000600052604160045260246000fd5b6000601f19601f8301169050919050565b7f50617320617373657a20646520736f6c646520737572206c6520636f6d70746560008201527f2e00000000000000000000000000000000000000000000000000000000000000602082015250565b7f4c65207265747261697420646520666f6e64206e27612070752061766f69722060008201527f6c6965752e000000000000000000000000000000000000000000000000000000602082015250565b5056fea2646970667358221220b214735750d6d55daa96fb653188edcef140d6097449d5aaadbfbe576a802c4c64736f6c63430008040033",
  "linkReferences": {},
  "deployedLinkReferences": {}
}