{
    "_format": "hh-sol-artifact-1",
    "contractName": "TwitchDailyEarn",
    "sourceName": "contracts/TwitchDayliEarn.sol",
    "abi": [
        {
            "inputs": [],
            "stateMutability": "payable",
            "type": "constructor"
        },
        {
            "anonymous": false,
            "inputs": [
                {
                    "indexed": true,
                    "internalType": "address",
                    "name": "from",
                    "type": "address"
                },
                {
                    "indexed": true,
                    "internalType": "address",
                    "name": "to",
                    "type": "address"
                },
                {
                    "indexed": false,
                    "internalType": "uint256",
                    "name": "timestamp",
                    "type": "uint256"
                },
                {
                    "indexed": false,
                    "internalType": "uint256",
                    "name": "value",
                    "type": "uint256"
                }
            ],
            "name": "DailyConnection",
            "type": "event"
        },
        {
            "inputs": [
                {
                    "internalType": "string",
                    "name": "keyStreamer",
                    "type": "string"
                }
            ],
            "name": "addTwitcher",
            "outputs": [],
            "stateMutability": "nonpayable",
            "type": "function"
        },
        {
            "inputs": [
                {
                    "internalType": "string",
                    "name": "keyStreamer",
                    "type": "string"
                }
            ],
            "name": "getStreamerByKey",
            "outputs": [
                {
                    "components": [
                        {
                            "internalType": "address",
                            "name": "identity",
                            "type": "address"
                        },
                        {
                            "internalType": "uint256",
                            "name": "tokenQuantity",
                            "type": "uint256"
                        }
                    ],
                    "internalType": "struct Structs.Streamer",
                    "name": "",
                    "type": "tuple"
                }
            ],
            "stateMutability": "view",
            "type": "function"
        },
        {
            "inputs": [
                {
                    "internalType": "string",
                    "name": "",
                    "type": "string"
                }
            ],
            "name": "streamers",
            "outputs": [
                {
                    "internalType": "address",
                    "name": "identity",
                    "type": "address"
                },
                {
                    "internalType": "uint256",
                    "name": "tokenQuantity",
                    "type": "uint256"
                }
            ],
            "stateMutability": "view",
            "type": "function"
        },
        {
            "inputs": [
                {
                    "internalType": "string",
                    "name": "keyStreamer",
                    "type": "string"
                }
            ],
            "name": "viewerConnected",
            "outputs": [
                {
                    "internalType": "bool",
                    "name": "",
                    "type": "bool"
                }
            ],
            "stateMutability": "nonpayable",
            "type": "function"
        }
    ],
    "bytecode": "0x6080604052620000336040518060600160405280602c815260200162000e1d602c91396200003960201b620004d11760201c565b620001cd565b620000d98160405160240162000050919062000146565b6040516020818303038152906040527f41304fac000000000000000000000000000000000000000000000000000000007bffffffffffffffffffffffffffffffffffffffffffffffffffffffff19166020820180517bffffffffffffffffffffffffffffffffffffffffffffffffffffffff8381831617835250505050620000dc60201b60201c565b50565b60008151905060006a636f6e736f6c652e6c6f679050602083016000808483855afa5050505050565b600062000112826200016a565b6200011e818562000175565b93506200013081856020860162000186565b6200013b81620001bc565b840191505092915050565b6000602082019050818103600083015262000162818462000105565b905092915050565b600081519050919050565b600082825260208201905092915050565b60005b83811015620001a657808201518184015260208101905062000189565b83811115620001b6576000848401525b50505050565b6000601f19601f8301169050919050565b610c4080620001dd6000396000f3fe608060405234801561001057600080fd5b506004361061004c5760003560e01c806309c8c9fa146100515780630da017ae146100825780637a08a816146100b257806390ba5eea146100ce575b600080fd5b61006b6004803603810190610066919061062b565b6100fe565b604051610079929190610864565b60405180910390f35b61009c6004803603810190610097919061062b565b610158565b6040516100a9919061088d565b60405180910390f35b6100cc60048036038101906100c7919061062b565b610344565b005b6100e860048036038101906100e3919061062b565b610439565b6040516100f5919061092a565b60405180910390f35b6000818051602081018201805184825260208301602085012081835280955050505050506000915090508060000160009054906101000a900473ffffffffffffffffffffffffffffffffffffffff16908060010154905082565b60008061016483610439565b905060006509184e72a000905080826020015110156101b8576040517f08c379a00000000000000000000000000000000000000000000000000000000081526004016101af906108ca565b60405180910390fd5b60003373ffffffffffffffffffffffffffffffffffffffff16826040516101de9061084f565b60006040518083038185875af1925050503d806000811461021b576040519150601f19603f3d011682016040523d82523d6000602084013e610220565b606091505b5050905080610264576040517f08c379a000000000000000000000000000000000000000000000000000000000815260040161025b906108ea565b60405180910390fd5b73__$f05717e08bdbab3ae7584a763fb56177e9$__63c9527c5784846040518363ffffffff1660e01b815260040161029d929190610945565b60006040518083038186803b1580156102b557600080fd5b505af41580156102c9573d6000803e3d6000fd5b50505050826000015173ffffffffffffffffffffffffffffffffffffffff163373ffffffffffffffffffffffffffffffffffffffff167fe384ba879237b0412f503fe639736c8f2f5f2718b1eababce48d49805ba62153428560405161033092919061096e565b60405180910390a360019350505050919050565b6000655af3107a4000905080471015610392576040517f08c379a00000000000000000000000000000000000000000000000000000000081526004016103899061090a565b60405180910390fd5b600060405180604001604052803373ffffffffffffffffffffffffffffffffffffffff168152602001838152509050806000846040516103d29190610838565b908152602001604051809103902060008201518160000160006101000a81548173ffffffffffffffffffffffffffffffffffffffff021916908373ffffffffffffffffffffffffffffffffffffffff16021790555060208201518160010155905050505050565b610441610593565b6000826040516104519190610838565b90815260200160405180910390206040518060400160405290816000820160009054906101000a900473ffffffffffffffffffffffffffffffffffffffff1673ffffffffffffffffffffffffffffffffffffffff1673ffffffffffffffffffffffffffffffffffffffff1681526020016001820154815250509050919050565b610567816040516024016104e591906108a8565b6040516020818303038152906040527f41304fac000000000000000000000000000000000000000000000000000000007bffffffffffffffffffffffffffffffffffffffffffffffffffffffff19166020820180517bffffffffffffffffffffffffffffffffffffffffffffffffffffffff838183161783525050505061056a565b50565b60008151905060006a636f6e736f6c652e6c6f679050602083016000808483855afa5050505050565b6040518060400160405280600073ffffffffffffffffffffffffffffffffffffffff168152602001600081525090565b60006105d66105d1846109bc565b610997565b9050828152602081018484840111156105ee57600080fd5b6105f9848285610a67565b509392505050565b600082601f83011261061257600080fd5b81356106228482602086016105c3565b91505092915050565b60006020828403121561063d57600080fd5b600082013567ffffffffffffffff81111561065757600080fd5b61066384828501610601565b91505092915050565b61067581610a1f565b82525050565b61068481610a1f565b82525050565b61069381610a1f565b82525050565b6106a281610a31565b82525050565b60006106b3826109ed565b6106bd8185610a03565b93506106cd818560208601610a76565b6106d681610b09565b840191505092915050565b60006106ec826109ed565b6106f68185610a14565b9350610706818560208601610a76565b80840191505092915050565b600061071f602883610a03565b915061072a82610b1a565b604082019050919050565b6000610742602583610a03565b915061074d82610b69565b604082019050919050565b60006107656000836109f8565b915061077082610bb8565b600082019050919050565b6000610788602a83610a03565b915061079382610bbb565b604082019050919050565b6040820160008201516107b4600085018261066c565b5060208201516107c760208501826107fc565b50505050565b6040820160008201516107e3600085018261068a565b5060208201516107f66020850182610829565b50505050565b61080581610a5d565b82525050565b61081481610a5d565b82525050565b61082381610a5d565b82525050565b61083281610a5d565b82525050565b600061084482846106e1565b915081905092915050565b600061085a82610758565b9150819050919050565b6000604082019050610879600083018561067b565b610886602083018461080b565b9392505050565b60006020820190506108a26000830184610699565b92915050565b600060208201905081810360008301526108c281846106a8565b905092915050565b600060208201905081810360008301526108e381610712565b9050919050565b6000602082019050818103600083015261090381610735565b9050919050565b600060208201905081810360008301526109238161077b565b9050919050565b600060408201905061093f600083018461079e565b92915050565b600060608201905061095a60008301856107cd565b610967604083018461081a565b9392505050565b6000604082019050610983600083018561080b565b610990602083018461080b565b9392505050565b60006109a16109b2565b90506109ad8282610aa9565b919050565b6000604051905090565b600067ffffffffffffffff8211156109d7576109d6610ada565b5b6109e082610b09565b9050602081019050919050565b600081519050919050565b600081905092915050565b600082825260208201905092915050565b600081905092915050565b6000610a2a82610a3d565b9050919050565b60008115159050919050565b600073ffffffffffffffffffffffffffffffffffffffff82169050919050565b6000819050919050565b82818337600083830152505050565b60005b83811015610a94578082015181840152602081019050610a79565b83811115610aa3576000848401525b50505050565b610ab282610b09565b810181811067ffffffffffffffff82111715610ad157610ad0610ada565b5b80604052505050565b7f4e487b7100000000000000000000000000000000000000000000000000000000600052604160045260246000fd5b6000601f19601f8301169050919050565b7f4c657320666f6e64732064752053747265616d657220736f6e7420696e73756660008201527f666973616e74732e000000000000000000000000000000000000000000000000602082015250565b7f4c65207265747261697420646520666f6e64206e27612070752061766f69722060008201527f6c6965752e000000000000000000000000000000000000000000000000000000602082015250565b50565b7f4d6f6e74616e7420737572206c6520636f6e74726174206465706c6f7920696e60008201527f737566666973616e742e0000000000000000000000000000000000000000000060208201525056fea26469706673582212201473a829d38a0c6536010208fb8e5be497f81f44720dbd8dac69a5bd64b750e764736f6c63430008040033496e697469616c69736174696f6e20647520636f6d706f73616e743a205477697463684461696c794561726e",
    "linkReferences": {
        "contracts/libraries/Structs.sol": {
            "Structs": [
                {
                    "length": 20,
                    "start": 1091
                }
            ]
        }
    },
    "deployedLinkReferences": {
        "contracts/libraries/Structs.sol": {
            "Structs": [
                {
                    "length": 20,
                    "start": 614
                }
            ]
        }
    }
}