{
    "_format": "hh-sol-artifact-1",
    "contractName": "Structs",
    "sourceName": "contracts/libraries/Structs.sol",
    "abi": [
        {
            "inputs": [
                {
                    "components": [
                        {
                            "internalType": "address",
                            "name": "identity",
                            "type": "address"
                        },
                        {
                            "internalType": "uint256",
                            "name": "tokenQuantity",
                            "type": "uint256"
                        }
                    ],
                    "internalType": "struct Structs.Streamer",
                    "name": "streamer",
                    "type": "tuple"
                },
                {
                    "internalType": "uint256",
                    "name": "value",
                    "type": "uint256"
                }
            ],
            "name": "setStreamerBalance",
            "outputs": [],
            "stateMutability": "pure",
            "type": "function"
        }
    ],
    "bytecode": "0x6102be610053600b82828239805160001a607314610046577f4e487b7100000000000000000000000000000000000000000000000000000000600052600060045260246000fd5b30600052607381538281f3fe73000000000000000000000000000000000000000030146080604052600436106100355760003560e01c8063c9527c571461003a575b600080fd5b610054600480360381019061004f91906100e9565b610056565b005b8082602001818151610068919061014a565b915081815250505050565b6000813590506100828161025a565b92915050565b60006040828403121561009a57600080fd5b6100a46040610125565b905060006100b484828501610073565b60008301525060206100c8848285016100d4565b60208301525092915050565b6000813590506100e381610271565b92915050565b600080606083850312156100fc57600080fd5b600061010a85828601610088565b925050604061011b858286016100d4565b9150509250929050565b600061012f610140565b905061013b82826101ba565b919050565b6000604051905090565b6000610155826101b0565b9150610160836101b0565b925082821015610173576101726101eb565b5b828203905092915050565b600061018982610190565b9050919050565b600073ffffffffffffffffffffffffffffffffffffffff82169050919050565b6000819050919050565b6101c382610249565b810181811067ffffffffffffffff821117156101e2576101e161021a565b5b80604052505050565b7f4e487b7100000000000000000000000000000000000000000000000000000000600052601160045260246000fd5b7f4e487b7100000000000000000000000000000000000000000000000000000000600052604160045260246000fd5b6000601f19601f8301169050919050565b6102638161017e565b811461026e57600080fd5b50565b61027a816101b0565b811461028557600080fd5b5056fea2646970667358221220b7d6df3e587970332005fa89c8cdb1b70e413397143d7e1f26d00bfb27ae17c464736f6c63430008040033",
    "linkReferences": {},
    "deployedLinkReferences": {}
}